:020000040800F2
:1000000000280020250600084D0600084D060008BF
:100010004D0600084D0600084D0600084D06000874
:100020004D0600084D0600084D0600084D06000864
:100030004D0600084D0600084D0600084D06000854
:100040004D0600084D0600084D0600084D06000844
:100050004D0600084D0600084D0600084D06000834
:100060004D0600084D0600084D0600084D06000824
:100070004D0600084D0600084D0600084D06000814
:100080004D0600084D0600084D0600084D06000804
:100090004D0600084D0600084D0600084D060008F4
:1000A0004D060008E50500084D0600084D0600084D
:1000B0004D0600084D0600084D0600084D060008D4
:1000C0004D0600084D0600084D0600084D060008C4
:1000D0004D0600084D0600084D0600084D060008B4
:1000E0004D0600084D0600084D0600084D060008A4
:1000F0004D0600084D0600084D0600084D06000894
:100100004D0600084D0600084D0600084D06000883
:100110004D0600084D0600084D0600084D06000873
:100120004D0600084D0600084D0600084D06000863
:100130004D0600084D0600084D0600084D06000853
:100140004D0600084D0600084D0600084D06000843
:1001500080B400AF054B1B68044A43F4016343F0CD
:100160000903136000BFBD4680BC704718100240F1
:1001700080B400AF064B4FF000721A60044B40226F
:100180001A60034B80221A6000BFBD4680BC7047D6
:1001900000E100E080B485B000AF264B1B68FB6037
:1001A0000023BB6015E0BB689B000F2202FA03F33B
:1001B000DB431A46FB681340FB60BB689B000222CE
:1001C00002FA03F31A46FB681343FB60BB68013372
:1001D000BB60BB68072BE6DD164AFB681360164B55
:1001E0001B687B6000233B6015E03B689B000F228F
:1001F00002FA03F3DB431A467B6813407B603B68DB
:100200009B00022202FA03F31A467B6813437B60C9
:100210003B6801333B603B68052BE6DD064A7B68A3
:100220001360064B00221A6000BF1437BD4680BC25
:10023000704700BF00100140041001400C10014045
:1002400080B483B000AF104B1B687B607B6823F0E9
:100250000F037B607B6843F008037B600A4A7B687E
:1002600013607B6823F0F0037B607B6843F08003BE
:100270007B60054A7B681360044B00221A6000BF54
:100280000C37BD4680BC7047000C0140080C014093
:1002900080B400AF0C4B1B680B4A43F001031360A2
:1002A0000A4B00221A600A4B41F63F721A60094B52
:1002B00008221A60084B1B68074A43F001031360C9
:1002C00000BFBD4680BC70470C2C0140102C014083
:1002D000282C01402C2C0140002C014080B400AFA0
:1002E000984B1B780133DAB2964B1A70954B1B78FA
:1002F000502B40F0E880944B1B68012B6ED1914B42
:1003000000221A70914B1A68914B83FB0231D3176C
:10031000C91A0B465B000B445B00D11ACAB28D4B65
:100320001A708A4B1B685A1C894B83FB0231D31706
:10033000C91A0B465B000B445B00D11ACAB2854B4D
:100340005A70824B1B689A1C814B83FB0231D31776
:10035000C91A0B465B000B445B00D11ACAB27D4B35
:100360009A707A4B1B68DA1C794B83FB0231D317E6
:10037000C91A0B465B000B445B00D11ACAB2754B1D
:10038000DA70724B1B681A1D714B83FB0231D31755
:10039000C91A0B465B000B445B00D11ACAB26D4B05
:1003A0001A716A4B1B685A1D694B83FB0231D317C4
:1003B000C91A0B465B000B445B00D11ACAB2654BED
:1003C0005A71624B1B680133604A13605F4B1B68B4
:1003D000062B78D15D4B00221A6074E0594B002245
:1003E0001A705D4B1B68C3F10602594B83FB023147
:1003F000D317C91A0B465B000B445B00D11ACAB273
:10040000544B1A70544B1B68C3F10702504B83FBCB
:100410000231D317C91A0B465B000B445B00D11A9B
:10042000CAB24C4B5A704C4B1B68C3F10802484B84
:1004300083FB0231D317C91A0B465B000B445B00E8
:10044000D11ACAB2434B9A70434B1B68C3F10902DD
:100450003F4B83FB0231D317C91A0B465B000B4499
:100460005B00D11ACAB23B4BDA703B4B1B68C3F13D
:100470000A02374B83FB0231D317C91A0B465B00C4
:100480000B445B00D11ACAB2324B1A71324B1B6853
:10049000C3F10B022E4B83FB0231D317C91A0B4653
:1004A0005B000B445B00D11ACAB22A4B5A712A4B2B
:1004B0001B680133284A1360274B1B68062B02D1A7
:1004C000254B00221A60254B1B68012B0BD11E4BBC
:1004D0001B6883F001031C4A1360204B1B681F4AF2
:1004E00023F0FF0313601D4B1B68022B0BD11C4B29
:1004F0001B6883F001031A4A1360184B1B68174AE4
:1005000023F0FF031360174B1B68164A43F47C5318
:100510001360144B1B68134A23F0FF031360104B46
:100520001B68012B24D10F4B1B680F4A1278114610
:10053000084A525C11460D4A525C1146094A0B4367
:10054000136023E02800002010000020200000207D
:10055000ABAAAA2A1800002024000020080C0140A1
:10056000140000200C1001401E000020000000209C
:10057000174B1B68174A12781146174A525C1146EE
:10058000164A525C1146124A0B431360104B1B680B
:10059000104A12780832012101FA02F2D2431146C0
:1005A0000B4A0B4013600B4B1B785A1C0C4B83FB04
:1005B0000231D317C91A0B465B000B445B00D11AFA
:1005C000CAB2044B1A7000BFBD4680BC704700BF62
:1005D0000C1001401E000020180000200800002020
:1005E000ABAAAA2A80B500AF064B1B6803F0010333
:1005F000002B04D0034B00221A60FFF76FFE00BFF0
:1006000080BD00BF102C014080B500AFFFF7A0FDFA
:10061000FFF7AEFDFFF7BEFDFFF712FEFFF738FE56
:10062000FEE700BF06480749074A914205D050F847
:10063000043B41F8043B9142F9D3FFF7E5BFFEE7E5
:0E0640004E0600080000002018000020FEE713
:10064E0039795B77333F00007D3F5B40067F0000CA
:08065E00010000000100000092
:00000001FF
